{
  "_format": "hh-sol-artifact-1",
  "contractName": "WZKD",
  "sourceName": "contracts/WZKD.sol",
  "abi": [
    {
      "inputs": [
        {
          "internalType": "string",
          "name": "tokenURI_",
          "type": "string"
        }
      ],
      "stateMutability": "nonpayable",
      "type": "constructor"
    },
    {
      "inputs": [],
      "name": "ApprovalCallerNotOwnerNorApproved",
      "type": "error"
    },
    {
      "inputs": [],
      "name": "ApprovalQueryForNonexistentToken",
      "type": "error"
    },
    {
      "inputs": [],
      "name": "ApprovalToCurrentOwner",
      "type": "error"
    },
    {
      "inputs": [],
      "name": "ApproveToCaller",
      "type": "error"
    },
    {
      "inputs": [],
      "name": "BalanceQueryForZeroAddress",
      "type": "error"
    },
    {
      "inputs": [],
      "name": "MintToZeroAddress",
      "type": "error"
    },
    {
      "inputs": [],
      "name": "MintZeroQuantity",
      "type": "error"
    },
    {
      "inputs": [],
      "name": "OwnerQueryForNonexistentToken",
      "type": "error"
    },
    {
      "inputs": [],
      "name": "TransferCallerNotOwnerNorApproved",
      "type": "error"
    },
    {
      "inputs": [],
      "name": "TransferFromIncorrectOwner",
      "type": "error"
    },
    {
      "inputs": [],
      "name": "TransferToNonERC721ReceiverImplementer",
      "type": "error"
    },
    {
      "inputs": [],
      "name": "TransferToZeroAddress",
      "type": "error"
    },
    {
      "inputs": [],
      "name": "URIQueryForNonexistentToken",
      "type": "error"
    },
    {
      "anonymous": false,
      "inputs": [
        {
          "indexed": true,
          "internalType": "address",
          "name": "owner",
          "type": "address"
        },
        {
          "indexed": true,
          "internalType": "address",
          "name": "approved",
          "type": "address"
        },
        {
          "indexed": true,
          "internalType": "uint256",
          "name": "tokenId",
          "type": "uint256"
        }
      ],
      "name": "Approval",
      "type": "event"
    },
    {
      "anonymous": false,
      "inputs": [
        {
          "indexed": true,
          "internalType": "address",
          "name": "owner",
          "type": "address"
        },
        {
          "indexed": true,
          "internalType": "address",
          "name": "operator",
          "type": "address"
        },
        {
          "indexed": false,
          "internalType": "bool",
          "name": "approved",
          "type": "bool"
        }
      ],
      "name": "ApprovalForAll",
      "type": "event"
    },
    {
      "anonymous": false,
      "inputs": [
        {
          "indexed": true,
          "internalType": "contract IERC20",
          "name": "token",
          "type": "address"
        },
        {
          "indexed": false,
          "internalType": "address",
          "name": "to",
          "type": "address"
        },
        {
          "indexed": false,
          "internalType": "uint256",
          "name": "amount",
          "type": "uint256"
        }
      ],
      "name": "ERC20PaymentReleased",
      "type": "event"
    },
    {
      "anonymous": false,
      "inputs": [
        {
          "indexed": true,
          "internalType": "address",
          "name": "previousOwner",
          "type": "address"
        },
        {
          "indexed": true,
          "internalType": "address",
          "name": "newOwner",
          "type": "address"
        }
      ],
      "name": "OwnershipTransferred",
      "type": "event"
    },
    {
      "anonymous": false,
      "inputs": [
        {
          "indexed": false,
          "internalType": "address",
          "name": "account",
          "type": "address"
        }
      ],
      "name": "Paused",
      "type": "event"
    },
    {
      "anonymous": false,
      "inputs": [
        {
          "indexed": false,
          "internalType": "address",
          "name": "account",
          "type": "address"
        },
        {
          "indexed": false,
          "internalType": "uint256",
          "name": "shares",
          "type": "uint256"
        }
      ],
      "name": "PayeeAdded",
      "type": "event"
    },
    {
      "anonymous": false,
      "inputs": [
        {
          "indexed": false,
          "internalType": "address",
          "name": "from",
          "type": "address"
        },
        {
          "indexed": false,
          "internalType": "uint256",
          "name": "amount",
          "type": "uint256"
        }
      ],
      "name": "PaymentReceived",
      "type": "event"
    },
    {
      "anonymous": false,
      "inputs": [
        {
          "indexed": false,
          "internalType": "address",
          "name": "to",
          "type": "address"
        },
        {
          "indexed": false,
          "internalType": "uint256",
          "name": "amount",
          "type": "uint256"
        }
      ],
      "name": "PaymentReleased",
      "type": "event"
    },
    {
      "anonymous": false,
      "inputs": [
        {
          "indexed": true,
          "internalType": "bytes32",
          "name": "role",
          "type": "bytes32"
        },
        {
          "indexed": true,
          "internalType": "bytes32",
          "name": "previousAdminRole",
          "type": "bytes32"
        },
        {
          "indexed": true,
          "internalType": "bytes32",
          "name": "newAdminRole",
          "type": "bytes32"
        }
      ],
      "name": "RoleAdminChanged",
      "type": "event"
    },
    {
      "anonymous": false,
      "inputs": [
        {
          "indexed": true,
          "internalType": "bytes32",
          "name": "role",
          "type": "bytes32"
        },
        {
          "indexed": true,
          "internalType": "address",
          "name": "account",
          "type": "address"
        },
        {
          "indexed": true,
          "internalType": "address",
          "name": "sender",
          "type": "address"
        }
      ],
      "name": "RoleGranted",
      "type": "event"
    },
    {
      "anonymous": false,
      "inputs": [
        {
          "indexed": true,
          "internalType": "bytes32",
          "name": "role",
          "type": "bytes32"
        },
        {
          "indexed": true,
          "internalType": "address",
          "name": "account",
          "type": "address"
        },
        {
          "indexed": true,
          "internalType": "address",
          "name": "sender",
          "type": "address"
        }
      ],
      "name": "RoleRevoked",
      "type": "event"
    },
    {
      "anonymous": false,
      "inputs": [
        {
          "indexed": true,
          "internalType": "address",
          "name": "from",
          "type": "address"
        },
        {
          "indexed": true,
          "internalType": "address",
          "name": "to",
          "type": "address"
        },
        {
          "indexed": true,
          "internalType": "uint256",
          "name": "tokenId",
          "type": "uint256"
        }
      ],
      "name": "Transfer",
      "type": "event"
    },
    {
      "anonymous": false,
      "inputs": [
        {
          "indexed": false,
          "internalType": "address",
          "name": "account",
          "type": "address"
        }
      ],
      "name": "Unpaused",
      "type": "event"
    },
    {
      "inputs": [],
      "name": "DEFAULT_ADMIN_ROLE",
      "outputs": [
        {
          "internalType": "bytes32",
          "name": "",
          "type": "bytes32"
        }
      ],
      "stateMutability": "view",
      "type": "function"
    },
    {
      "inputs": [
        {
          "internalType": "uint256",
          "name": "",
          "type": "uint256"
        }
      ],
      "name": "_payees",
      "outputs": [
        {
          "internalType": "address",
          "name": "",
          "type": "address"
        }
      ],
      "stateMutability": "view",
      "type": "function"
    },
    {
      "inputs": [
        {
          "internalType": "address",
          "name": "wallet",
          "type": "address"
        },
        {
          "internalType": "uint256",
          "name": "amount",
          "type": "uint256"
        }
      ],
      "name": "airdrop",
      "outputs": [],
      "stateMutability": "nonpayable",
      "type": "function"
    },
    {
      "inputs": [
        {
          "internalType": "address",
          "name": "to",
          "type": "address"
        },
        {
          "internalType": "uint256",
          "name": "tokenId",
          "type": "uint256"
        }
      ],
      "name": "approve",
      "outputs": [],
      "stateMutability": "nonpayable",
      "type": "function"
    },
    {
      "inputs": [
        {
          "internalType": "address",
          "name": "owner",
          "type": "address"
        }
      ],
      "name": "balanceOf",
      "outputs": [
        {
          "internalType": "uint256",
          "name": "",
          "type": "uint256"
        }
      ],
      "stateMutability": "view",
      "type": "function"
    },
    {
      "inputs": [],
      "name": "claim",
      "outputs": [],
      "stateMutability": "nonpayable",
      "type": "function"
    },
    {
      "inputs": [
        {
          "internalType": "uint256",
          "name": "amount",
          "type": "uint256"
        }
      ],
      "name": "freeMint",
      "outputs": [],
      "stateMutability": "nonpayable",
      "type": "function"
    },
    {
      "inputs": [
        {
          "internalType": "uint256",
          "name": "tokenId",
          "type": "uint256"
        }
      ],
      "name": "getApproved",
      "outputs": [
        {
          "internalType": "address",
          "name": "",
          "type": "address"
        }
      ],
      "stateMutability": "view",
      "type": "function"
    },
    {
      "inputs": [
        {
          "internalType": "bytes32",
          "name": "role",
          "type": "bytes32"
        }
      ],
      "name": "getRoleAdmin",
      "outputs": [
        {
          "internalType": "bytes32",
          "name": "",
          "type": "bytes32"
        }
      ],
      "stateMutability": "view",
      "type": "function"
    },
    {
      "inputs": [
        {
          "internalType": "bytes32",
          "name": "role",
          "type": "bytes32"
        },
        {
          "internalType": "address",
          "name": "account",
          "type": "address"
        }
      ],
      "name": "grantRole",
      "outputs": [],
      "stateMutability": "nonpayable",
      "type": "function"
    },
    {
      "inputs": [
        {
          "internalType": "bytes32",
          "name": "role",
          "type": "bytes32"
        },
        {
          "internalType": "address",
          "name": "account",
          "type": "address"
        }
      ],
      "name": "hasRole",
      "outputs": [
        {
          "internalType": "bool",
          "name": "",
          "type": "bool"
        }
      ],
      "stateMutability": "view",
      "type": "function"
    },
    {
      "inputs": [
        {
          "internalType": "bytes32[]",
          "name": "_proof",
          "type": "bytes32[]"
        },
        {
          "internalType": "address",
          "name": "_address",
          "type": "address"
        }
      ],
      "name": "isAllowed",
      "outputs": [
        {
          "internalType": "bool",
          "name": "",
          "type": "bool"
        }
      ],
      "stateMutability": "view",
      "type": "function"
    },
    {
      "inputs": [
        {
          "internalType": "address",
          "name": "owner",
          "type": "address"
        },
        {
          "internalType": "address",
          "name": "operator",
          "type": "address"
        }
      ],
      "name": "isApprovedForAll",
      "outputs": [
        {
          "internalType": "bool",
          "name": "",
          "type": "bool"
        }
      ],
      "stateMutability": "view",
      "type": "function"
    },
    {
      "inputs": [],
      "name": "isPrivate",
      "outputs": [
        {
          "internalType": "bool",
          "name": "",
          "type": "bool"
        }
      ],
      "stateMutability": "view",
      "type": "function"
    },
    {
      "inputs": [],
      "name": "isPublic",
      "outputs": [
        {
          "internalType": "bool",
          "name": "",
          "type": "bool"
        }
      ],
      "stateMutability": "view",
      "type": "function"
    },
    {
      "inputs": [],
      "name": "merkleRoot",
      "outputs": [
        {
          "internalType": "bytes32",
          "name": "",
          "type": "bytes32"
        }
      ],
      "stateMutability": "view",
      "type": "function"
    },
    {
      "inputs": [],
      "name": "name",
      "outputs": [
        {
          "internalType": "string",
          "name": "",
          "type": "string"
        }
      ],
      "stateMutability": "view",
      "type": "function"
    },
    {
      "inputs": [],
      "name": "owner",
      "outputs": [
        {
          "internalType": "address",
          "name": "",
          "type": "address"
        }
      ],
      "stateMutability": "view",
      "type": "function"
    },
    {
      "inputs": [
        {
          "internalType": "uint256",
          "name": "tokenId",
          "type": "uint256"
        }
      ],
      "name": "ownerOf",
      "outputs": [
        {
          "internalType": "address",
          "name": "",
          "type": "address"
        }
      ],
      "stateMutability": "view",
      "type": "function"
    },
    {
      "inputs": [],
      "name": "paused",
      "outputs": [
        {
          "internalType": "bool",
          "name": "",
          "type": "bool"
        }
      ],
      "stateMutability": "view",
      "type": "function"
    },
    {
      "inputs": [
        {
          "internalType": "uint256",
          "name": "index",
          "type": "uint256"
        }
      ],
      "name": "payee",
      "outputs": [
        {
          "internalType": "address",
          "name": "",
          "type": "address"
        }
      ],
      "stateMutability": "view",
      "type": "function"
    },
    {
      "inputs": [],
      "name": "price",
      "outputs": [
        {
          "internalType": "uint256",
          "name": "",
          "type": "uint256"
        }
      ],
      "stateMutability": "view",
      "type": "function"
    },
    {
      "inputs": [
        {
          "internalType": "uint256",
          "name": "amount",
          "type": "uint256"
        },
        {
          "internalType": "bytes32[]",
          "name": "_proof",
          "type": "bytes32[]"
        }
      ],
      "name": "privateMint",
      "outputs": [],
      "stateMutability": "payable",
      "type": "function"
    },
    {
      "inputs": [
        {
          "internalType": "uint256",
          "name": "amount",
          "type": "uint256"
        }
      ],
      "name": "publicMint",
      "outputs": [],
      "stateMutability": "payable",
      "type": "function"
    },
    {
      "inputs": [
        {
          "internalType": "address payable",
          "name": "account",
          "type": "address"
        }
      ],
      "name": "release",
      "outputs": [],
      "stateMutability": "nonpayable",
      "type": "function"
    },
    {
      "inputs": [
        {
          "internalType": "contract IERC20",
          "name": "token",
          "type": "address"
        },
        {
          "internalType": "address",
          "name": "account",
          "type": "address"
        }
      ],
      "name": "release",
      "outputs": [],
      "stateMutability": "nonpayable",
      "type": "function"
    },
    {
      "inputs": [
        {
          "internalType": "contract IERC20",
          "name": "token",
          "type": "address"
        },
        {
          "internalType": "address",
          "name": "account",
          "type": "address"
        }
      ],
      "name": "released",
      "outputs": [
        {
          "internalType": "uint256",
          "name": "",
          "type": "uint256"
        }
      ],
      "stateMutability": "view",
      "type": "function"
    },
    {
      "inputs": [
        {
          "internalType": "address",
          "name": "account",
          "type": "address"
        }
      ],
      "name": "released",
      "outputs": [
        {
          "internalType": "uint256",
          "name": "",
          "type": "uint256"
        }
      ],
      "stateMutability": "view",
      "type": "function"
    },
    {
      "inputs": [],
      "name": "renounceOwnership",
      "outputs": [],
      "stateMutability": "nonpayable",
      "type": "function"
    },
    {
      "inputs": [
        {
          "internalType": "bytes32",
          "name": "role",
          "type": "bytes32"
        },
        {
          "internalType": "address",
          "name": "account",
          "type": "address"
        }
      ],
      "name": "renounceRole",
      "outputs": [],
      "stateMutability": "nonpayable",
      "type": "function"
    },
    {
      "inputs": [],
      "name": "requireAllowlist",
      "outputs": [
        {
          "internalType": "bool",
          "name": "",
          "type": "bool"
        }
      ],
      "stateMutability": "view",
      "type": "function"
    },
    {
      "inputs": [
        {
          "internalType": "bytes32",
          "name": "role",
          "type": "bytes32"
        },
        {
          "internalType": "address",
          "name": "account",
          "type": "address"
        }
      ],
      "name": "revokeRole",
      "outputs": [],
      "stateMutability": "nonpayable",
      "type": "function"
    },
    {
      "inputs": [
        {
          "internalType": "address",
          "name": "from",
          "type": "address"
        },
        {
          "internalType": "address",
          "name": "to",
          "type": "address"
        },
        {
          "internalType": "uint256",
          "name": "tokenId",
          "type": "uint256"
        }
      ],
      "name": "safeTransferFrom",
      "outputs": [],
      "stateMutability": "nonpayable",
      "type": "function"
    },
    {
      "inputs": [
        {
          "internalType": "address",
          "name": "from",
          "type": "address"
        },
        {
          "internalType": "address",
          "name": "to",
          "type": "address"
        },
        {
          "internalType": "uint256",
          "name": "tokenId",
          "type": "uint256"
        },
        {
          "internalType": "bytes",
          "name": "_data",
          "type": "bytes"
        }
      ],
      "name": "safeTransferFrom",
      "outputs": [],
      "stateMutability": "nonpayable",
      "type": "function"
    },
    {
      "inputs": [
        {
          "internalType": "address",
          "name": "operator",
          "type": "address"
        },
        {
          "internalType": "bool",
          "name": "approved",
          "type": "bool"
        }
      ],
      "name": "setApprovalForAll",
      "outputs": [],
      "stateMutability": "nonpayable",
      "type": "function"
    },
    {
      "inputs": [
        {
          "internalType": "uint256",
          "name": "amount",
          "type": "uint256"
        }
      ],
      "name": "setMaxPrivateMint",
      "outputs": [],
      "stateMutability": "nonpayable",
      "type": "function"
    },
    {
      "inputs": [
        {
          "internalType": "uint256",
          "name": "amount",
          "type": "uint256"
        }
      ],
      "name": "setMaxPublicMint",
      "outputs": [],
      "stateMutability": "nonpayable",
      "type": "function"
    },
    {
      "inputs": [
        {
          "internalType": "uint256",
          "name": "amount",
          "type": "uint256"
        }
      ],
      "name": "setMaxSupply",
      "outputs": [],
      "stateMutability": "nonpayable",
      "type": "function"
    },
    {
      "inputs": [
        {
          "internalType": "bytes32",
          "name": "root",
          "type": "bytes32"
        }
      ],
      "name": "setMerkleRoot",
      "outputs": [],
      "stateMutability": "nonpayable",
      "type": "function"
    },
    {
      "inputs": [
        {
          "internalType": "uint256",
          "name": "amount",
          "type": "uint256"
        }
      ],
      "name": "setPrice",
      "outputs": [],
      "stateMutability": "nonpayable",
      "type": "function"
    },
    {
      "inputs": [
        {
          "internalType": "bool",
          "name": "value",
          "type": "bool"
        }
      ],
      "name": "setPrivate",
      "outputs": [],
      "stateMutability": "nonpayable",
      "type": "function"
    },
    {
      "inputs": [
        {
          "internalType": "bool",
          "name": "value",
          "type": "bool"
        }
      ],
      "name": "setPublic",
      "outputs": [],
      "stateMutability": "nonpayable",
      "type": "function"
    },
    {
      "inputs": [
        {
          "internalType": "bool",
          "name": "value",
          "type": "bool"
        }
      ],
      "name": "setRequireAllowlist",
      "outputs": [],
      "stateMutability": "nonpayable",
      "type": "function"
    },
    {
      "inputs": [
        {
          "internalType": "string",
          "name": "uri_",
          "type": "string"
        }
      ],
      "name": "setTokenURI",
      "outputs": [],
      "stateMutability": "nonpayable",
      "type": "function"
    },
    {
      "inputs": [
        {
          "internalType": "uint256",
          "name": "amount",
          "type": "uint256"
        }
      ],
      "name": "setWlPrice",
      "outputs": [],
      "stateMutability": "nonpayable",
      "type": "function"
    },
    {
      "inputs": [
        {
          "internalType": "address",
          "name": "account",
          "type": "address"
        }
      ],
      "name": "shares",
      "outputs": [
        {
          "internalType": "uint256",
          "name": "",
          "type": "uint256"
        }
      ],
      "stateMutability": "view",
      "type": "function"
    },
    {
      "inputs": [
        {
          "internalType": "bytes4",
          "name": "interfaceId",
          "type": "bytes4"
        }
      ],
      "name": "supportsInterface",
      "outputs": [
        {
          "internalType": "bool",
          "name": "",
          "type": "bool"
        }
      ],
      "stateMutability": "view",
      "type": "function"
    },
    {
      "inputs": [],
      "name": "symbol",
      "outputs": [
        {
          "internalType": "string",
          "name": "",
          "type": "string"
        }
      ],
      "stateMutability": "view",
      "type": "function"
    },
    {
      "inputs": [
        {
          "internalType": "uint256",
          "name": "tokenId",
          "type": "uint256"
        }
      ],
      "name": "tokenURI",
      "outputs": [
        {
          "internalType": "string",
          "name": "",
          "type": "string"
        }
      ],
      "stateMutability": "view",
      "type": "function"
    },
    {
      "inputs": [
        {
          "internalType": "contract IERC20",
          "name": "token",
          "type": "address"
        }
      ],
      "name": "totalReleased",
      "outputs": [
        {
          "internalType": "uint256",
          "name": "",
          "type": "uint256"
        }
      ],
      "stateMutability": "view",
      "type": "function"
    },
    {
      "inputs": [],
      "name": "totalReleased",
      "outputs": [
        {
          "internalType": "uint256",
          "name": "",
          "type": "uint256"
        }
      ],
      "stateMutability": "view",
      "type": "function"
    },
    {
      "inputs": [],
      "name": "totalShares",
      "outputs": [
        {
          "internalType": "uint256",
          "name": "",
          "type": "uint256"
        }
      ],
      "stateMutability": "view",
      "type": "function"
    },
    {
      "inputs": [],
      "name": "totalSupply",
      "outputs": [
        {
          "internalType": "uint256",
          "name": "",
          "type": "uint256"
        }
      ],
      "stateMutability": "view",
      "type": "function"
    },
    {
      "inputs": [
        {
          "internalType": "address",
          "name": "from",
          "type": "address"
        },
        {
          "internalType": "address",
          "name": "to",
          "type": "address"
        },
        {
          "internalType": "uint256",
          "name": "tokenId",
          "type": "uint256"
        }
      ],
      "name": "transferFrom",
      "outputs": [],
      "stateMutability": "nonpayable",
      "type": "function"
    },
    {
      "inputs": [
        {
          "internalType": "address",
          "name": "newOwner",
          "type": "address"
        }
      ],
      "name": "transferOwnership",
      "outputs": [],
      "stateMutability": "nonpayable",
      "type": "function"
    },
    {
      "inputs": [],
      "name": "wlPrice",
      "outputs": [
        {
          "internalType": "uint256",
          "name": "",
          "type": "uint256"
        }
      ],
      "stateMutability": "view",
      "type": "function"
    },
    {
      "stateMutability": "payable",
      "type": "receive"
    }
  ],
  "bytecode": "0x600a601855600660195566f195a3c4ba0000601e5566aa87bee5380000601f5560e0604052732961da73f6e08eee37ec3f488e9008004f90bbdc6080908152739b0c5c21ba4d452934ad4c1cb314fbcfca132c7a60a052730b0237ad59e1bbcb611fdf0c9fa07350c3f41e8760c0526200007e906020906003620006c3565b50604080516060810182526005815260556020820152600a91810191909152620000ad9060219060036200072d565b50348015620000bb57600080fd5b506040516200450e3803806200450e833981016040819052620000de916200081a565b6020805460408051828402810184019091528181529190828201828280156200013157602002820191906000526020600020905b81546001600160a01b0316815260019091019060200180831162000112575b505050505060218054806020026020016040519081016040528092919081815260200182805480156200018457602002820191906000526020600020905b8154815260200190600101908083116200016f575b5050505050826040518060400160405280600481526020016315d692d160e21b8152506040518060400160405280600481526020016315d692d160e21b81525081818160029080519060200190620001de92919062000770565b508051620001f490600390602084019062000770565b506001600055505082516200021190600890602086019062000770565b505050508051825114620002875760405162461bcd60e51b815260206004820152603260248201527f5061796d656e7453706c69747465723a2070617965657320616e6420736861726044820152710cae640d8cadccee8d040dad2e6dac2e8c6d60731b60648201526084015b60405180910390fd5b6000825111620002da5760405162461bcd60e51b815260206004820152601a60248201527f5061796d656e7453706c69747465723a206e6f2070617965657300000000000060448201526064016200027e565b60005b8251811015620003465762000331838281518110620003005762000300620008f6565b60200260200101518383815181106200031d576200031d620008f6565b6020026020010151620003cb60201b60201c565b806200033d8162000922565b915050620002dd565b505050620003636200035d620005b960201b60201c565b620005bd565b6013805460ff199081169091556001601481905560168054909216179055620003a0739b0c5c21ba4d452934ad4c1cb314fbcfca132c7a620005bd565b601d805461ffff19169055620003b86000336200060f565b620003c461162e600955565b5062000995565b6001600160a01b038216620004385760405162461bcd60e51b815260206004820152602c60248201527f5061796d656e7453706c69747465723a206163636f756e74206973207468652060448201526b7a65726f206164647265737360a01b60648201526084016200027e565b600081116200048a5760405162461bcd60e51b815260206004820152601d60248201527f5061796d656e7453706c69747465723a2073686172657320617265203000000060448201526064016200027e565b6001600160a01b0382166000908152600c602052604090205415620005065760405162461bcd60e51b815260206004820152602b60248201527f5061796d656e7453706c69747465723a206163636f756e7420616c726561647960448201526a206861732073686172657360a81b60648201526084016200027e565b600e8054600181019091557fbb7b4a454dc3493923482f07822329ed19e8244eff582cc204f8554c3620c3fd0180546001600160a01b0319166001600160a01b0384169081179091556000908152600c60205260409020819055600a54620005709082906200093e565b600a55604080516001600160a01b0384168152602081018390527f40c340f65e17194d14ddddb073d3c9f888e3cb52b5aae0c6c7706b4fbc905fac910160405180910390a15050565b3390565b601180546001600160a01b038381166001600160a01b0319831681179093556040519116919082907f8be0079c531659141344cd1fd0a4f28419497f9722a3daafe3b4186f6b6457e090600090a35050565b6200061b82826200061f565b5050565b60008281526012602090815260408083206001600160a01b038516845290915290205460ff166200061b5760008281526012602090815260408083206001600160a01b03851684529091529020805460ff191660011790556200067f3390565b6001600160a01b0316816001600160a01b0316837f2f8788117e7eff1d82e926ec794901d17c78024a50270940304540a733656f0d60405160405180910390a45050565b8280548282559060005260206000209081019282156200071b579160200282015b828111156200071b57825182546001600160a01b0319166001600160a01b03909116178255602090920191600190910190620006e4565b5062000729929150620007ed565b5090565b8280548282559060005260206000209081019282156200071b579160200282015b828111156200071b578251829060ff169055916020019190600101906200074e565b8280546200077e9062000959565b90600052602060002090601f016020900481019282620007a257600085556200071b565b82601f10620007bd57805160ff19168380011785556200071b565b828001600101855582156200071b579182015b828111156200071b578251825591602001919060010190620007d0565b5b80821115620007295760008155600101620007ee565b634e487b7160e01b600052604160045260246000fd5b600060208083850312156200082e57600080fd5b82516001600160401b03808211156200084657600080fd5b818501915085601f8301126200085b57600080fd5b81518181111562000870576200087062000804565b604051601f8201601f19908116603f011681019083821181831017156200089b576200089b62000804565b816040528281528886848701011115620008b457600080fd5b600093505b82841015620008d85784840186015181850187015292850192620008b9565b82841115620008ea5760008684830101525b98975050505050505050565b634e487b7160e01b600052603260045260246000fd5b634e487b7160e01b600052601160045260246000fd5b6000600182016200093757620009376200090c565b5060010190565b600082198211156200095457620009546200090c565b500190565b600181811c908216806200096e57607f821691505b6020821081036200098f57634e487b7160e01b600052602260045260246000fd5b50919050565b613b6980620009a56000396000f3fe60806040526004361061036f5760003560e01c80637cb64759116101c6578063b88d4fde116100f7578063dc9a153511610095578063e33b7de31161006f578063e33b7de314610a8e578063e985e9c514610aa3578063f2fde38b14610aec578063faff660e14610b0c57600080fd5b8063dc9a153514610a34578063e0df5b6f14610a4e578063e283672d14610a6e57600080fd5b8063c87b56dd116100d1578063c87b56dd14610988578063ce7c2ac2146109a8578063d547741f146109de578063d79779b2146109fe57600080fd5b8063b88d4fde1461093f578063b977fe551461095f578063c7f8d01a1461097257600080fd5b806391d1485411610164578063a035b1fe1161013e578063a035b1fe146108d4578063a0718a3d146108ea578063a217fddf1461090a578063a22cb4651461091f57600080fd5b806391d148541461084357806395d89b41146108895780639852595c1461089e57600080fd5b80638ba4cc3c116101a05780638ba4cc3c146107c55780638da5cb5b146107e55780638dd07d0f1461080357806391b7f5ed1461082357600080fd5b80637cb64759146107655780637fac2094146107855780638b83209b146107a557600080fd5b806336568abe116102a05780635c975abb1161023e5780636f8b44b0116102185780636f8b44b0146106f057806370a0823114610710578063715018a6146107305780637c928fe91461074557600080fd5b80635c975abb146106985780635cbcec4e146106b05780636352211e146106d057600080fd5b806342842e0e1161027a57806342842e0e14610623578063429766a91461064357806348b75044146106635780634e71d92d1461068357600080fd5b806336568abe146105a85780633a98ef39146105c8578063406072a9146105dd57600080fd5b806323b872dd1161030d578063283248be116102e7578063283248be1461053f5780632db115441461055f5780632eb4a7ab146105725780632f2ff15d1461058857600080fd5b806323b872dd146104cf578063248a9ca3146104ef578063270ab52c1461051f57600080fd5b8063095ea7b311610349578063095ea7b31461044c5780630c9a94d21461046e57806318160ddd1461048857806319165587146104af57600080fd5b806301ffc9a7146103bd57806306fdde03146103f2578063081812fc1461041457600080fd5b366103b8577f6ef95f06320e7a25a04a175ca677b7052bdd97131872c2192525a629f51be77033604080516001600160a01b0390921682523460208301520160405180910390a1005b600080fd5b3480156103c957600080fd5b506103dd6103d8366004613397565b610b2b565b60405190151581526020015b60405180910390f35b3480156103fe57600080fd5b50610407610b3c565b6040516103e9919061340c565b34801561042057600080fd5b5061043461042f36600461341f565b610bce565b6040516001600160a01b0390911681526020016103e9565b34801561045857600080fd5b5061046c61046736600461344d565b610c2b565b005b34801561047a57600080fd5b506016546103dd9060ff1681565b34801561049457600080fd5b5060015460005403600019015b6040519081526020016103e9565b3480156104bb57600080fd5b5061046c6104ca366004613479565b610ce3565b3480156104db57600080fd5b5061046c6104ea366004613496565b610ec5565b3480156104fb57600080fd5b506104a161050a36600461341f565b60009081526012602052604090206001015490565b34801561052b57600080fd5b5061046c61053a36600461341f565b610ed0565b34801561054b57600080fd5b5061043461055a36600461341f565b610ee1565b61046c61056d36600461341f565b610f0b565b34801561057e57600080fd5b506104a160175481565b34801561059457600080fd5b5061046c6105a33660046134d7565b611106565b3480156105b457600080fd5b5061046c6105c33660046134d7565b61112b565b3480156105d457600080fd5b50600a546104a1565b3480156105e957600080fd5b506104a16105f8366004613507565b6001600160a01b03918216600090815260106020908152604080832093909416825291909152205490565b34801561062f57600080fd5b5061046c61063e366004613496565b6111b7565b34801561064f57600080fd5b5061046c61065e366004613543565b6111d2565b34801561066f57600080fd5b5061046c61067e366004613507565b6111ef565b34801561068f57600080fd5b5061046c611490565b3480156106a457600080fd5b5060135460ff166103dd565b3480156106bc57600080fd5b5061046c6106cb366004613543565b61149b565b3480156106dc57600080fd5b506104346106eb36600461341f565b6114ba565b3480156106fc57600080fd5b5061046c61070b36600461341f565b6114cc565b34801561071c57600080fd5b506104a161072b366004613479565b6114e0565b34801561073c57600080fd5b5061046c611548565b34801561075157600080fd5b5061046c61076036600461341f565b6115ac565b34801561077157600080fd5b5061046c61078036600461341f565b611693565b34801561079157600080fd5b506103dd6107a03660046135ac565b6116a7565b3480156107b157600080fd5b506104346107c036600461341f565b611742565b3480156107d157600080fd5b5061046c6107e036600461344d565b611772565b3480156107f157600080fd5b506011546001600160a01b0316610434565b34801561080f57600080fd5b5061046c61081e36600461341f565b611787565b34801561082f57600080fd5b5061046c61083e36600461341f565b611798565b34801561084f57600080fd5b506103dd61085e3660046134d7565b60009182526012602090815260408084206001600160a01b0393909316845291905290205460ff1690565b34801561089557600080fd5b506104076117a9565b3480156108aa57600080fd5b506104a16108b9366004613479565b6001600160a01b03166000908152600d602052604090205490565b3480156108e057600080fd5b506104a1601e5481565b3480156108f657600080fd5b5061046c61090536600461341f565b6117b8565b34801561091657600080fd5b506104a1600081565b34801561092b57600080fd5b5061046c61093a366004613603565b6117c9565b34801561094b57600080fd5b5061046c61095a366004613660565b611877565b61046c61096d366004613740565b6118da565b34801561097e57600080fd5b506104a1601f5481565b34801561099457600080fd5b506104076109a336600461341f565b611bc1565b3480156109b457600080fd5b506104a16109c3366004613479565b6001600160a01b03166000908152600c602052604090205490565b3480156109ea57600080fd5b5061046c6109f93660046134d7565b611c5d565b348015610a0a57600080fd5b506104a1610a19366004613479565b6001600160a01b03166000908152600f602052604090205490565b348015610a4057600080fd5b50601d546103dd9060ff1681565b348015610a5a57600080fd5b5061046c610a6936600461378c565b611c82565b348015610a7a57600080fd5b5061046c610a89366004613543565b611c97565b348015610a9a57600080fd5b50600b546104a1565b348015610aaf57600080fd5b506103dd610abe366004613507565b6001600160a01b03918216600090815260076020908152604080832093909416825291909152205460ff1690565b348015610af857600080fd5b5061046c610b07366004613479565b611cda565b348015610b1857600080fd5b50601d546103dd90610100900460ff1681565b6000610b3682611db9565b92915050565b606060028054610b4b906137fe565b80601f0160208091040260200160405190810160405280929190818152602001828054610b77906137fe565b8015610bc45780601f10610b9957610100808354040283529160200191610bc4565b820191906000526020600020905b815481529060010190602001808311610ba757829003601f168201915b5050505050905090565b6000610bd982611e0f565b610c0f576040517fcf4700e400000000000000000000000000000000000000000000000000000000815260040160405180910390fd5b506000908152600660205260409020546001600160a01b031690565b6000610c36826114ba565b9050806001600160a01b0316836001600160a01b031603610c83576040517f943f7b8c00000000000000000000000000000000000000000000000000000000815260040160405180910390fd5b336001600160a01b03821614610cd357610c9d8133610abe565b610cd3576040517fcfb3b94200000000000000000000000000000000000000000000000000000000815260040160405180910390fd5b610cde838383611e61565b505050565b6001600160a01b0381166000908152600c6020526040902054610d735760405162461bcd60e51b815260206004820152602660248201527f5061796d656e7453706c69747465723a206163636f756e7420686173206e6f2060448201527f736861726573000000000000000000000000000000000000000000000000000060648201526084015b60405180910390fd5b6000610d7e600b5490565b610d889047613880565b90506000610db58383610db0866001600160a01b03166000908152600d602052604090205490565b611ed5565b905080600003610e2d5760405162461bcd60e51b815260206004820152602b60248201527f5061796d656e7453706c69747465723a206163636f756e74206973206e6f742060448201527f647565207061796d656e740000000000000000000000000000000000000000006064820152608401610d6a565b6001600160a01b0383166000908152600d602052604081208054839290610e55908490613880565b9250508190555080600b6000828254610e6e9190613880565b90915550610e7e90508382611f1b565b604080516001600160a01b0385168152602081018390527fdf20fd1e76bc69d672e4814fafb2c449bba3a5369d8359adf9e05e6fde87b056910160405180910390a1505050565b610cde838383612034565b6000610edb816122d8565b50601955565b60208181548110610ef157600080fd5b6000918252602090912001546001600160a01b0316905081565b60135460ff1615610f5e5760405162461bcd60e51b815260206004820152601060248201527f5061757361626c653a20706175736564000000000000000000000000000000006044820152606401610d6a565b600260145403610fb05760405162461bcd60e51b815260206004820152601f60248201527f5265656e7472616e637947756172643a207265656e7472616e742063616c6c006044820152606401610d6a565b6002601455601954336000908152601c6020526040902054610fd3908390613880565b11156110215760405162461bcd60e51b815260206004820152601260248201527f6d696e742071756f7461207265616368656400000000000000000000000000006044820152606401610d6a565b80601e5461102f9190613898565b341461107d5760405162461bcd60e51b815260206004820152601160248201527f696e73756666696369656e742066756e640000000000000000000000000000006044820152606401610d6a565b601d5460ff166110cf5760405162461bcd60e51b815260206004820152600c60248201527f6e6f74206f70656e2079657400000000000000000000000000000000000000006044820152606401610d6a565b336000908152601c6020526040812080548392906110ee908490613880565b909155506110fe905033826122e2565b506001601455565b600082815260126020526040902060010154611121816122d8565b610cde83836123fb565b6001600160a01b03811633146111a95760405162461bcd60e51b815260206004820152602f60248201527f416363657373436f6e74726f6c3a2063616e206f6e6c792072656e6f756e636560448201527f20726f6c657320666f722073656c6600000000000000000000000000000000006064820152608401610d6a565b6111b3828261249d565b5050565b610cde83838360405180602001604052806000815250611877565b60006111dd816122d8565b6016805460ff19168315151790555050565b6001600160a01b0381166000908152600c602052604090205461127a5760405162461bcd60e51b815260206004820152602660248201527f5061796d656e7453706c69747465723a206163636f756e7420686173206e6f2060448201527f73686172657300000000000000000000000000000000000000000000000000006064820152608401610d6a565b6001600160a01b0382166000908152600f60205260408120546040517f70a082310000000000000000000000000000000000000000000000000000000081523060048201526001600160a01b038516906370a0823190602401602060405180830381865afa1580156112f0573d6000803e3d6000fd5b505050506040513d601f19601f8201168201806040525081019061131491906138b7565b61131e9190613880565b905060006113578383610db087876001600160a01b03918216600090815260106020908152604080832093909416825291909152205490565b9050806000036113cf5760405162461bcd60e51b815260206004820152602b60248201527f5061796d656e7453706c69747465723a206163636f756e74206973206e6f742060448201527f647565207061796d656e740000000000000000000000000000000000000000006064820152608401610d6a565b6001600160a01b03808516600090815260106020908152604080832093871683529290529081208054839290611406908490613880565b90915550506001600160a01b0384166000908152600f602052604081208054839290611433908490613880565b909155506114449050848483612520565b604080516001600160a01b038581168252602082018490528616917f3be5b7a71e84ed12875d241991c70855ac5817d847039e17a9d895c1ceb0f18a910160405180910390a250505050565b61149933610ce3565b565b60006114a6816122d8565b50601d805460ff1916911515919091179055565b60006114c5826125a0565b5192915050565b60006114d7816122d8565b6111b382600955565b60006001600160a01b038216611522576040517f8f4eb60400000000000000000000000000000000000000000000000000000000815260040160405180910390fd5b506001600160a01b031660009081526005602052604090205467ffffffffffffffff1690565b6011546001600160a01b031633146115a25760405162461bcd60e51b815260206004820181905260248201527f4f776e61626c653a2063616c6c6572206973206e6f7420746865206f776e65726044820152606401610d6a565b6114996000612731565b610237816022546115bd9190613880565b111561160b5760405162461bcd60e51b815260206004820152601260248201527f6d696e742071756f7461207265616368656400000000000000000000000000006044820152606401610d6a565b33730b0237ad59e1bbcb611fdf0c9fa07350c3f41e871461166e5760405162461bcd60e51b815260206004820152600b60248201527f6e6f7420616c6c6f7765640000000000000000000000000000000000000000006044820152606401610d6a565b80602260008282546116809190613880565b90915550611690905033826122e2565b50565b600061169e816122d8565b6111b382601755565b6040517fffffffffffffffffffffffffffffffffffffffff000000000000000000000000606083901b166020820152600090819060340160405160208183030381529060405280519060200120905061173785858080602002602001604051908101604052809392919081815260200183836020028082843760009201919091525050601754915084905061279b565b9150505b9392505050565b6000600e8281548110611757576117576138d0565b6000918252602090912001546001600160a01b031692915050565b600061177d816122d8565b610cde83836122e2565b6000611792816122d8565b50601f55565b60006117a3816122d8565b50601e55565b606060038054610b4b906137fe565b60006117c3816122d8565b50601855565b336001600160a01b0383160361180b576040517fb06307db00000000000000000000000000000000000000000000000000000000815260040160405180910390fd5b3360008181526007602090815260408083206001600160a01b03871680855290835292819020805460ff191686151590811790915590519081529192917f17307eab39ab6107e8899845ad3d59bd9653f200f220920489ca2b5937696c31910160405180910390a35050565b611882848484612034565b6001600160a01b0383163b156118d45761189e848484846127b1565b6118d4576040517fd1a57ed600000000000000000000000000000000000000000000000000000000815260040160405180910390fd5b50505050565b60135460ff161561192d5760405162461bcd60e51b815260206004820152601060248201527f5061757361626c653a20706175736564000000000000000000000000000000006044820152606401610d6a565b60026014540361197f5760405162461bcd60e51b815260206004820152601f60248201527f5265656e7472616e637947756172643a207265656e7472616e742063616c6c006044820152606401610d6a565b6002601455601854336000908152601b60205260409020546119a2908590613880565b11156119f05760405162461bcd60e51b815260206004820152601760248201527f616d6f756e74206578636565646564206d6178696d756d0000000000000000006044820152606401610d6a565b82601f546119fe9190613898565b3414611a4c5760405162461bcd60e51b815260206004820152601160248201527f696e73756666696369656e742066756e640000000000000000000000000000006044820152606401610d6a565b601d54610100900460ff16611aa35760405162461bcd60e51b815260206004820152600c60248201527f6e6f74206f70656e2079657400000000000000000000000000000000000000006044820152606401610d6a565b611aae8282336116a7565b80611b3c5750601a546040517f70a082310000000000000000000000000000000000000000000000000000000081523360048201526000916001600160a01b0316906370a0823190602401602060405180830381865afa158015611b16573d6000803e3d6000fd5b505050506040513d601f19601f82011682018060405250810190611b3a91906138b7565b115b611b885760405162461bcd60e51b815260206004820152600b60248201527f6e6f7420616c6c6f7765640000000000000000000000000000000000000000006044820152606401610d6a565b336000908152601b602052604081208054859290611ba7908490613880565b90915550611bb7905033846122e2565b5050600160145550565b6060611bcc82611e0f565b611c02576040517fa14c4b5000000000000000000000000000000000000000000000000000000000815260040160405180910390fd5b6000611c0c6128ff565b90508051600003611c2c576040518060200160405280600081525061173b565b80611c368461290e565b604051602001611c479291906138ff565b6040516020818303038152906040529392505050565b600082815260126020526040902060010154611c78816122d8565b610cde838361249d565b6000611c8d816122d8565b610cde8383612a43565b6000611ca2816122d8565b50601d8054911515610100027fffffffffffffffffffffffffffffffffffffffffffffffffffffffffffff00ff909216919091179055565b6011546001600160a01b03163314611d345760405162461bcd60e51b815260206004820181905260248201527f4f776e61626c653a2063616c6c6572206973206e6f7420746865206f776e65726044820152606401610d6a565b6001600160a01b038116611db05760405162461bcd60e51b815260206004820152602660248201527f4f776e61626c653a206e6577206f776e657220697320746865207a65726f206160448201527f64647265737300000000000000000000000000000000000000000000000000006064820152608401610d6a565b61169081612731565b60007fffffffff0000000000000000000000000000000000000000000000000000000082167f7965db0b000000000000000000000000000000000000000000000000000000001480610b365750610b3682612a4f565b600081600111158015611e23575060005482105b8015610b365750506000908152600460205260409020547c0100000000000000000000000000000000000000000000000000000000900460ff161590565b60008281526006602052604080822080547fffffffffffffffffffffffff0000000000000000000000000000000000000000166001600160a01b0387811691821790925591518593918516917f8c5be1e5ebec7d5bd14f71427d1e84f3dd0314c0f7b2291e5b200ac8c7c3b92591a4505050565b600a546001600160a01b0384166000908152600c602052604081205490918391611eff9086613898565b611f0991906139b0565b611f1391906139c4565b949350505050565b80471015611f6b5760405162461bcd60e51b815260206004820152601d60248201527f416464726573733a20696e73756666696369656e742062616c616e63650000006044820152606401610d6a565b6000826001600160a01b03168260405160006040518083038185875af1925050503d8060008114611fb8576040519150601f19603f3d011682016040523d82523d6000602084013e611fbd565b606091505b5050905080610cde5760405162461bcd60e51b815260206004820152603a60248201527f416464726573733a20756e61626c6520746f2073656e642076616c75652c207260448201527f6563697069656e74206d617920686176652072657665727465640000000000006064820152608401610d6a565b600061203f826125a0565b9050836001600160a01b031681600001516001600160a01b031614612090576040517fa114810000000000000000000000000000000000000000000000000000000000815260040160405180910390fd5b6000336001600160a01b03861614806120ae57506120ae8533610abe565b806120c95750336120be84610bce565b6001600160a01b0316145b905080612102576040517f59c896be00000000000000000000000000000000000000000000000000000000815260040160405180910390fd5b6001600160a01b038416612142576040517fea553b3400000000000000000000000000000000000000000000000000000000815260040160405180910390fd5b61214e60008487611e61565b6001600160a01b03858116600090815260056020908152604080832080547fffffffffffffffffffffffffffffffffffffffffffffffff000000000000000080821667ffffffffffffffff92831660001901831617909255898616808652838620805493841693831660019081018416949094179055898652600490945282852080547fffffffff0000000000000000000000000000000000000000000000000000000016909417740100000000000000000000000000000000000000004290921691909102178355870180845292208054919390911661228d57600054821461228d578054602086015167ffffffffffffffff1674010000000000000000000000000000000000000000027fffffffff000000000000000000000000000000000000000000000000000000009091166001600160a01b038a16171781555b50505082846001600160a01b0316866001600160a01b03167fddf252ad1be2c89b69c2b068fc378daa952ba7f163c4a11628f55a4df523b3ef60405160405180910390a45050505050565b6116908133612a5a565b60006122f76001546000546000199190030190565b9050600082116123495760405162461bcd60e51b815260206004820152601160248201527f616d6f756e7420746f6f206c6974746c650000000000000000000000000000006044820152606401610d6a565b336123965760405162461bcd60e51b815260206004820152600d60248201527f656d7074792061646472657373000000000000000000000000000000000000006044820152606401610d6a565b6009546123a38383613880565b11156123f15760405162461bcd60e51b815260206004820152601160248201527f657863656564206d617820737570706c790000000000000000000000000000006044820152606401610d6a565b610cde8383612ada565b60008281526012602090815260408083206001600160a01b038516845290915290205460ff166111b35760008281526012602090815260408083206001600160a01b03851684529091529020805460ff191660011790556124593390565b6001600160a01b0316816001600160a01b0316837f2f8788117e7eff1d82e926ec794901d17c78024a50270940304540a733656f0d60405160405180910390a45050565b60008281526012602090815260408083206001600160a01b038516845290915290205460ff16156111b35760008281526012602090815260408083206001600160a01b0385168085529252808320805460ff1916905551339285917ff6391f5c32d9c69d2a47ea670b442974b53935d1edc7fd64eb21e047a839171b9190a45050565b604080516001600160a01b038416602482015260448082018490528251808303909101815260649091019091526020810180517bffffffffffffffffffffffffffffffffffffffffffffffffffffffff167fa9059cbb00000000000000000000000000000000000000000000000000000000179052610cde908490612af4565b604080516060810182526000808252602082018190529181019190915281806001116126ff576000548110156126ff57600081815260046020908152604091829020825160608101845290546001600160a01b038116825274010000000000000000000000000000000000000000810467ffffffffffffffff16928201929092527c010000000000000000000000000000000000000000000000000000000090910460ff161515918101829052906126fd5780516001600160a01b031615612669579392505050565b5060001901600081815260046020908152604091829020825160608101845290546001600160a01b03811680835274010000000000000000000000000000000000000000820467ffffffffffffffff16938301939093527c0100000000000000000000000000000000000000000000000000000000900460ff16151592810192909252156126f8579392505050565b612669565b505b6040517fdf2d9b4200000000000000000000000000000000000000000000000000000000815260040160405180910390fd5b601180546001600160a01b038381167fffffffffffffffffffffffff0000000000000000000000000000000000000000831681179093556040519116919082907f8be0079c531659141344cd1fd0a4f28419497f9722a3daafe3b4186f6b6457e090600090a35050565b6000826127a88584612bd9565b14949350505050565b6040517f150b7a020000000000000000000000000000000000000000000000000000000081526000906001600160a01b0385169063150b7a02906127ff9033908990889088906004016139db565b6020604051808303816000875af192505050801561283a575060408051601f3d908101601f1916820190925261283791810190613a17565b60015b6128b1573d808015612868576040519150601f19603f3d011682016040523d82523d6000602084013e61286d565b606091505b5080516000036128a9576040517fd1a57ed600000000000000000000000000000000000000000000000000000000815260040160405180910390fd5b805181602001fd5b7fffffffff00000000000000000000000000000000000000000000000000000000167f150b7a0200000000000000000000000000000000000000000000000000000000149050949350505050565b606060088054610b4b906137fe565b60608160000361295157505060408051808201909152600181527f3000000000000000000000000000000000000000000000000000000000000000602082015290565b8160005b811561297b578061296581613a34565b91506129749050600a836139b0565b9150612955565b60008167ffffffffffffffff81111561299657612996613631565b6040519080825280601f01601f1916602001820160405280156129c0576020820181803683370190505b5090505b8415611f13576129d56001836139c4565b91506129e2600a86613a4e565b6129ed906030613880565b60f81b818381518110612a0257612a026138d0565b60200101907effffffffffffffffffffffffffffffffffffffffffffffffffffffffffffff1916908160001a905350612a3c600a866139b0565b94506129c4565b610cde600883836132d0565b6000610b3682612c4d565b60008281526012602090815260408083206001600160a01b038516845290915290205460ff166111b357612a98816001600160a01b03166014612d30565b612aa3836020612d30565b604051602001612ab4929190613a62565b60408051601f198184030181529082905262461bcd60e51b8252610d6a9160040161340c565b6111b3828260405180602001604052806000815250612f59565b6000612b49826040518060400160405280602081526020017f5361666545524332303a206c6f772d6c6576656c2063616c6c206661696c6564815250856001600160a01b03166131bc9092919063ffffffff16565b805190915015610cde5780806020019051810190612b679190613ae3565b610cde5760405162461bcd60e51b815260206004820152602a60248201527f5361666545524332303a204552433230206f7065726174696f6e20646964206e60448201527f6f742073756363656564000000000000000000000000000000000000000000006064820152608401610d6a565b600081815b8451811015612c45576000858281518110612bfb57612bfb6138d0565b60200260200101519050808311612c215760008381526020829052604090209250612c32565b600081815260208490526040902092505b5080612c3d81613a34565b915050612bde565b509392505050565b60007fffffffff0000000000000000000000000000000000000000000000000000000082167f80ac58cd000000000000000000000000000000000000000000000000000000001480612ce057507fffffffff0000000000000000000000000000000000000000000000000000000082167f5b5e139f00000000000000000000000000000000000000000000000000000000145b80610b3657507f01ffc9a7000000000000000000000000000000000000000000000000000000007fffffffff00000000000000000000000000000000000000000000000000000000831614610b36565b60606000612d3f836002613898565b612d4a906002613880565b67ffffffffffffffff811115612d6257612d62613631565b6040519080825280601f01601f191660200182016040528015612d8c576020820181803683370190505b5090507f300000000000000000000000000000000000000000000000000000000000000081600081518110612dc357612dc36138d0565b60200101907effffffffffffffffffffffffffffffffffffffffffffffffffffffffffffff1916908160001a9053507f780000000000000000000000000000000000000000000000000000000000000081600181518110612e2657612e266138d0565b60200101907effffffffffffffffffffffffffffffffffffffffffffffffffffffffffffff1916908160001a9053506000612e62846002613898565b612e6d906001613880565b90505b6001811115612f0a577f303132333435363738396162636465660000000000000000000000000000000085600f1660108110612eae57612eae6138d0565b1a60f81b828281518110612ec457612ec46138d0565b60200101907effffffffffffffffffffffffffffffffffffffffffffffffffffffffffffff1916908160001a90535060049490941c93612f0381613b00565b9050612e70565b50831561173b5760405162461bcd60e51b815260206004820181905260248201527f537472696e67733a20686578206c656e67746820696e73756666696369656e746044820152606401610d6a565b6000546001600160a01b038416612f9c576040517f2e07630000000000000000000000000000000000000000000000000000000000815260040160405180910390fd5b82600003612fd6576040517fb562e8dd00000000000000000000000000000000000000000000000000000000815260040160405180910390fd5b6001600160a01b038416600081815260056020908152604080832080547fffffffffffffffffffffffffffffffff00000000000000000000000000000000811667ffffffffffffffff8083168b018116918217680100000000000000007fffffffffffffffffffffffffffffffffffffffffffffffff000000000000000090941690921783900481168b01811690920217909155858452600490925290912080547fffffffff000000000000000000000000000000000000000000000000000000001683177401000000000000000000000000000000000000000042909316929092029190911790558190818501903b15613167575b60405182906001600160a01b038816906000907fddf252ad1be2c89b69c2b068fc378daa952ba7f163c4a11628f55a4df523b3ef908290a461311760008784806001019550876127b1565b61314d576040517fd1a57ed600000000000000000000000000000000000000000000000000000000815260040160405180910390fd5b8082106130cc57826000541461316257600080fd5b6131ac565b5b6040516001830192906001600160a01b038816906000907fddf252ad1be2c89b69c2b068fc378daa952ba7f163c4a11628f55a4df523b3ef908290a4808210613168575b5060009081556118d49085838684565b6060611f138484600085856001600160a01b0385163b61321e5760405162461bcd60e51b815260206004820152601d60248201527f416464726573733a2063616c6c20746f206e6f6e2d636f6e74726163740000006044820152606401610d6a565b600080866001600160a01b0316858760405161323a9190613b17565b60006040518083038185875af1925050503d8060008114613277576040519150601f19603f3d011682016040523d82523d6000602084013e61327c565b606091505b509150915061328c828286613297565b979650505050505050565b606083156132a657508161173b565b8251156132b65782518084602001fd5b8160405162461bcd60e51b8152600401610d6a919061340c565b8280546132dc906137fe565b90600052602060002090601f0160209004810192826132fe5760008555613344565b82601f106133175782800160ff19823516178555613344565b82800160010185558215613344579182015b82811115613344578235825591602001919060010190613329565b50613350929150613354565b5090565b5b808211156133505760008155600101613355565b7fffffffff000000000000000000000000000000000000000000000000000000008116811461169057600080fd5b6000602082840312156133a957600080fd5b813561173b81613369565b60005b838110156133cf5781810151838201526020016133b7565b838111156118d45750506000910152565b600081518084526133f88160208601602086016133b4565b601f01601f19169290920160200192915050565b60208152600061173b60208301846133e0565b60006020828403121561343157600080fd5b5035919050565b6001600160a01b038116811461169057600080fd5b6000806040838503121561346057600080fd5b823561346b81613438565b946020939093013593505050565b60006020828403121561348b57600080fd5b813561173b81613438565b6000806000606084860312156134ab57600080fd5b83356134b681613438565b925060208401356134c681613438565b929592945050506040919091013590565b600080604083850312156134ea57600080fd5b8235915060208301356134fc81613438565b809150509250929050565b6000806040838503121561351a57600080fd5b823561352581613438565b915060208301356134fc81613438565b801515811461169057600080fd5b60006020828403121561355557600080fd5b813561173b81613535565b60008083601f84011261357257600080fd5b50813567ffffffffffffffff81111561358a57600080fd5b6020830191508360208260051b85010111156135a557600080fd5b9250929050565b6000806000604084860312156135c157600080fd5b833567ffffffffffffffff8111156135d857600080fd5b6135e486828701613560565b90945092505060208401356135f881613438565b809150509250925092565b6000806040838503121561361657600080fd5b823561362181613438565b915060208301356134fc81613535565b7f4e487b7100000000000000000000000000000000000000000000000000000000600052604160045260246000fd5b6000806000806080858703121561367657600080fd5b843561368181613438565b9350602085013561369181613438565b925060408501359150606085013567ffffffffffffffff808211156136b557600080fd5b818701915087601f8301126136c957600080fd5b8135818111156136db576136db613631565b604051601f8201601f19908116603f0116810190838211818310171561370357613703613631565b816040528281528a602084870101111561371c57600080fd5b82602086016020830137600060208483010152809550505050505092959194509250565b60008060006040848603121561375557600080fd5b83359250602084013567ffffffffffffffff81111561377357600080fd5b61377f86828701613560565b9497909650939450505050565b6000806020838503121561379f57600080fd5b823567ffffffffffffffff808211156137b757600080fd5b818501915085601f8301126137cb57600080fd5b8135818111156137da57600080fd5b8660208285010111156137ec57600080fd5b60209290920196919550909350505050565b600181811c9082168061381257607f821691505b60208210810361384b577f4e487b7100000000000000000000000000000000000000000000000000000000600052602260045260246000fd5b50919050565b7f4e487b7100000000000000000000000000000000000000000000000000000000600052601160045260246000fd5b6000821982111561389357613893613851565b500190565b60008160001904831182151516156138b2576138b2613851565b500290565b6000602082840312156138c957600080fd5b5051919050565b7f4e487b7100000000000000000000000000000000000000000000000000000000600052603260045260246000fd5b600083516139118184602088016133b4565b7f2f00000000000000000000000000000000000000000000000000000000000000908301908152835161394b8160018401602088016133b4565b7f2e6a736f6e00000000000000000000000000000000000000000000000000000060019290910191820152600601949350505050565b7f4e487b7100000000000000000000000000000000000000000000000000000000600052601260045260246000fd5b6000826139bf576139bf613981565b500490565b6000828210156139d6576139d6613851565b500390565b60006001600160a01b03808716835280861660208401525083604083015260806060830152613a0d60808301846133e0565b9695505050505050565b600060208284031215613a2957600080fd5b815161173b81613369565b60006000198203613a4757613a47613851565b5060010190565b600082613a5d57613a5d613981565b500690565b7f416363657373436f6e74726f6c3a206163636f756e7420000000000000000000815260008351613a9a8160178501602088016133b4565b7f206973206d697373696e6720726f6c65200000000000000000000000000000006017918401918201528351613ad78160288401602088016133b4565b01602801949350505050565b600060208284031215613af557600080fd5b815161173b81613535565b600081613b0f57613b0f613851565b506000190190565b60008251613b298184602087016133b4565b919091019291505056fea26469706673582212202fc82c7ac4fd243dea60432647bd19ee67a6bddc3e2e0a64d8525cac55787fc364736f6c634300080e0033",
  "linkReferences": {},
  "deployedLinkReferences": {}
}